{
  "address": "0xbFB8302ec9e1a06283e649B48AfBB8F3bD86Ea11",
  "abi": [
    {
      "inputs": [
        {
          "internalType": "address",
          "name": "_owner",
          "type": "address"
        },
        {
          "internalType": "string",
          "name": "_name",
          "type": "string"
        },
        {
          "internalType": "string",
          "name": "_symbol",
          "type": "string"
        }
      ],
      "stateMutability": "nonpayable",
      "type": "constructor"
    },
    {
      "anonymous": false,
      "inputs": [
        {
          "indexed": true,
          "internalType": "address",
          "name": "owner",
          "type": "address"
        },
        {
          "indexed": true,
          "internalType": "address",
          "name": "spender",
          "type": "address"
        },
        {
          "indexed": false,
          "internalType": "uint256",
          "name": "value",
          "type": "uint256"
        }
      ],
      "name": "Approval",
      "type": "event"
    },
    {
      "anonymous": false,
      "inputs": [
        {
          "indexed": true,
          "internalType": "address",
          "name": "approvedBy",
          "type": "address"
        },
        {
          "indexed": true,
          "internalType": "uint256",
          "name": "value",
          "type": "uint256"
        },
        {
          "indexed": false,
          "internalType": "string",
          "name": "ifpsHashOfCarbonCreditCertificate",
          "type": "string"
        }
      ],
      "name": "DepositCarbonCreditsFromCertificate",
      "type": "event"
    },
    {
      "anonymous": false,
      "inputs": [
        {
          "indexed": true,
          "internalType": "address",
          "name": "previousOwner",
          "type": "address"
        },
        {
          "indexed": true,
          "internalType": "address",
          "name": "newOwner",
          "type": "address"
        }
      ],
      "name": "OwnershipTransferred",
      "type": "event"
    },
    {
      "anonymous": false,
      "inputs": [
        {
          "indexed": true,
          "internalType": "address",
          "name": "from",
          "type": "address"
        },
        {
          "indexed": true,
          "internalType": "address",
          "name": "to",
          "type": "address"
        },
        {
          "indexed": false,
          "internalType": "uint256",
          "name": "value",
          "type": "uint256"
        }
      ],
      "name": "Transfer",
      "type": "event"
    },
    {
      "inputs": [
        {
          "internalType": "address",
          "name": "owner",
          "type": "address"
        },
        {
          "internalType": "address",
          "name": "spender",
          "type": "address"
        }
      ],
      "name": "allowance",
      "outputs": [
        {
          "internalType": "uint256",
          "name": "",
          "type": "uint256"
        }
      ],
      "stateMutability": "view",
      "type": "function"
    },
    {
      "inputs": [
        {
          "internalType": "address",
          "name": "spender",
          "type": "address"
        },
        {
          "internalType": "uint256",
          "name": "amount",
          "type": "uint256"
        }
      ],
      "name": "approve",
      "outputs": [
        {
          "internalType": "bool",
          "name": "",
          "type": "bool"
        }
      ],
      "stateMutability": "nonpayable",
      "type": "function"
    },
    {
      "inputs": [
        {
          "internalType": "address",
          "name": "account",
          "type": "address"
        }
      ],
      "name": "balanceOf",
      "outputs": [
        {
          "internalType": "uint256",
          "name": "",
          "type": "uint256"
        }
      ],
      "stateMutability": "view",
      "type": "function"
    },
    {
      "inputs": [
        {
          "internalType": "string",
          "name": "",
          "type": "string"
        }
      ],
      "name": "carbonCertificateValue",
      "outputs": [
        {
          "internalType": "uint256",
          "name": "",
          "type": "uint256"
        }
      ],
      "stateMutability": "view",
      "type": "function"
    },
    {
      "inputs": [
        {
          "internalType": "uint256",
          "name": "",
          "type": "uint256"
        }
      ],
      "name": "carbonCertificates",
      "outputs": [
        {
          "internalType": "string",
          "name": "",
          "type": "string"
        }
      ],
      "stateMutability": "view",
      "type": "function"
    },
    {
      "inputs": [],
      "name": "carbonCertificatesLength",
      "outputs": [
        {
          "internalType": "uint256",
          "name": "length",
          "type": "uint256"
        }
      ],
      "stateMutability": "nonpayable",
      "type": "function"
    },
    {
      "inputs": [],
      "name": "decimals",
      "outputs": [
        {
          "internalType": "uint8",
          "name": "",
          "type": "uint8"
        }
      ],
      "stateMutability": "view",
      "type": "function"
    },
    {
      "inputs": [
        {
          "internalType": "address",
          "name": "spender",
          "type": "address"
        },
        {
          "internalType": "uint256",
          "name": "subtractedValue",
          "type": "uint256"
        }
      ],
      "name": "decreaseAllowance",
      "outputs": [
        {
          "internalType": "bool",
          "name": "",
          "type": "bool"
        }
      ],
      "stateMutability": "nonpayable",
      "type": "function"
    },
    {
      "inputs": [
        {
          "internalType": "uint256",
          "name": "_value",
          "type": "uint256"
        },
        {
          "internalType": "string",
          "name": "_ipfsHashOfCarbonCreditCertificate",
          "type": "string"
        }
      ],
      "name": "depositCarbonCreditsFromCertificate",
      "outputs": [],
      "stateMutability": "nonpayable",
      "type": "function"
    },
    {
      "inputs": [
        {
          "internalType": "address",
          "name": "spender",
          "type": "address"
        },
        {
          "internalType": "uint256",
          "name": "addedValue",
          "type": "uint256"
        }
      ],
      "name": "increaseAllowance",
      "outputs": [
        {
          "internalType": "bool",
          "name": "",
          "type": "bool"
        }
      ],
      "stateMutability": "nonpayable",
      "type": "function"
    },
    {
      "inputs": [],
      "name": "name",
      "outputs": [
        {
          "internalType": "string",
          "name": "",
          "type": "string"
        }
      ],
      "stateMutability": "view",
      "type": "function"
    },
    {
      "inputs": [],
      "name": "owner",
      "outputs": [
        {
          "internalType": "address",
          "name": "",
          "type": "address"
        }
      ],
      "stateMutability": "view",
      "type": "function"
    },
    {
      "inputs": [],
      "name": "renounceOwnership",
      "outputs": [],
      "stateMutability": "nonpayable",
      "type": "function"
    },
    {
      "inputs": [
        {
          "internalType": "uint256",
          "name": "_value",
          "type": "uint256"
        }
      ],
      "name": "retire",
      "outputs": [],
      "stateMutability": "nonpayable",
      "type": "function"
    },
    {
      "inputs": [],
      "name": "symbol",
      "outputs": [
        {
          "internalType": "string",
          "name": "",
          "type": "string"
        }
      ],
      "stateMutability": "view",
      "type": "function"
    },
    {
      "inputs": [],
      "name": "totalSupply",
      "outputs": [
        {
          "internalType": "uint256",
          "name": "",
          "type": "uint256"
        }
      ],
      "stateMutability": "view",
      "type": "function"
    },
    {
      "inputs": [
        {
          "internalType": "address",
          "name": "to",
          "type": "address"
        },
        {
          "internalType": "uint256",
          "name": "amount",
          "type": "uint256"
        }
      ],
      "name": "transfer",
      "outputs": [
        {
          "internalType": "bool",
          "name": "",
          "type": "bool"
        }
      ],
      "stateMutability": "nonpayable",
      "type": "function"
    },
    {
      "inputs": [
        {
          "internalType": "address",
          "name": "from",
          "type": "address"
        },
        {
          "internalType": "address",
          "name": "to",
          "type": "address"
        },
        {
          "internalType": "uint256",
          "name": "amount",
          "type": "uint256"
        }
      ],
      "name": "transferFrom",
      "outputs": [
        {
          "internalType": "bool",
          "name": "",
          "type": "bool"
        }
      ],
      "stateMutability": "nonpayable",
      "type": "function"
    },
    {
      "inputs": [
        {
          "internalType": "address",
          "name": "newOwner",
          "type": "address"
        }
      ],
      "name": "transferOwnership",
      "outputs": [],
      "stateMutability": "nonpayable",
      "type": "function"
    }
  ],
  "transactionHash": "0x2159c3a8c2ed734680aacde91ef49c51e71899a36975b9dd8cdfd49776b5ffb8",
  "args": [
    "0xdB38902ca57549115CCd3999E1B2672bDa492BBa",
    "Carbon Credit Token",
    "CCT"
  ],
  "numDeployments": 1,
  "solcInputHash": "abfcba572f047ad903d26308073c9dd6",
  "bytecode": "0x60806040523480156200001157600080fd5b5060405162002b5a38038062002b5a8339818101604052810190620000379190620003ee565b8181816003908051906020019062000051929190620002b5565b5080600490805190602001906200006a929190620002b5565b5050506200008d62000081620000a760201b60201c565b620000af60201b60201c565b6200009e836200017560201b60201c565b5050506200074f565b600033905090565b6000600560009054906101000a900473ffffffffffffffffffffffffffffffffffffffff16905081600560006101000a81548173ffffffffffffffffffffffffffffffffffffffff021916908373ffffffffffffffffffffffffffffffffffffffff1602179055508173ffffffffffffffffffffffffffffffffffffffff168173ffffffffffffffffffffffffffffffffffffffff167f8be0079c531659141344cd1fd0a4f28419497f9722a3daafe3b4186f6b6457e060405160405180910390a35050565b62000185620000a760201b60201c565b73ffffffffffffffffffffffffffffffffffffffff16620001ab6200028b60201b60201c565b73ffffffffffffffffffffffffffffffffffffffff161462000204576040517f08c379a0000000000000000000000000000000000000000000000000000000008152600401620001fb90620004e6565b60405180910390fd5b600073ffffffffffffffffffffffffffffffffffffffff168173ffffffffffffffffffffffffffffffffffffffff16141562000277576040517f08c379a00000000000000000000000000000000000000000000000000000000081526004016200026e90620004c4565b60405180910390fd5b6200028881620000af60201b60201c565b50565b6000600560009054906101000a900473ffffffffffffffffffffffffffffffffffffffff16905090565b828054620002c390620005e2565b90600052602060002090601f016020900481019282620002e7576000855562000333565b82601f106200030257805160ff191683800117855562000333565b8280016001018555821562000333579182015b828111156200033257825182559160200191906001019062000315565b5b50905062000342919062000346565b5090565b5b808211156200036157600081600090555060010162000347565b5090565b60006200037c620003768462000531565b62000508565b9050828152602081018484840111156200039557600080fd5b620003a2848285620005ac565b509392505050565b600081519050620003bb8162000735565b92915050565b600082601f830112620003d357600080fd5b8151620003e584826020860162000365565b91505092915050565b6000806000606084860312156200040457600080fd5b60006200041486828701620003aa565b935050602084015167ffffffffffffffff8111156200043257600080fd5b6200044086828701620003c1565b925050604084015167ffffffffffffffff8111156200045e57600080fd5b6200046c86828701620003c1565b9150509250925092565b60006200048560268362000567565b91506200049282620006bd565b604082019050919050565b6000620004ac60208362000567565b9150620004b9826200070c565b602082019050919050565b60006020820190508181036000830152620004df8162000476565b9050919050565b6000602082019050818103600083015262000501816200049d565b9050919050565b60006200051462000527565b905062000522828262000618565b919050565b6000604051905090565b600067ffffffffffffffff8211156200054f576200054e6200067d565b5b6200055a82620006ac565b9050602081019050919050565b600082825260208201905092915050565b600062000585826200058c565b9050919050565b600073ffffffffffffffffffffffffffffffffffffffff82169050919050565b60005b83811015620005cc578082015181840152602081019050620005af565b83811115620005dc576000848401525b50505050565b60006002820490506001821680620005fb57607f821691505b602082108114156200061257620006116200064e565b5b50919050565b6200062382620006ac565b810181811067ffffffffffffffff821117156200064557620006446200067d565b5b80604052505050565b7f4e487b7100000000000000000000000000000000000000000000000000000000600052602260045260246000fd5b7f4e487b7100000000000000000000000000000000000000000000000000000000600052604160045260246000fd5b6000601f19601f8301169050919050565b7f4f776e61626c653a206e6577206f776e657220697320746865207a65726f206160008201527f6464726573730000000000000000000000000000000000000000000000000000602082015250565b7f4f776e61626c653a2063616c6c6572206973206e6f7420746865206f776e6572600082015250565b620007408162000578565b81146200074c57600080fd5b50565b6123fb806200075f6000396000f3fe608060405234801561001057600080fd5b50600436106101215760003560e01c80636c471160116100ad578063a457c2d711610071578063a457c2d71461031e578063a9059cbb1461034e578063dc3a78bc1461037e578063dd62ed3e1461039c578063f2fde38b146103cc57610121565b80636c4711601461027857806370a08231146102a8578063715018a6146102d85780638da5cb5b146102e257806395d89b411461030057610121565b806323b872dd116100f457806323b872dd146101c25780632e010077146101f2578063313ce5671461020e5780633790cf571461022c578063395093511461024857610121565b806306fdde0314610126578063095ea7b31461014457806317843c991461017457806318160ddd146101a4575b600080fd5b61012e6103e8565b60405161013b9190611b26565b60405180910390f35b61015e6004803603810190610159919061174f565b61047a565b60405161016b9190611b0b565b60405180910390f35b61018e600480360381019061018991906117cc565b61049d565b60405161019b9190611b26565b60405180910390f35b6101ac610549565b6040516101b99190611d08565b60405180910390f35b6101dc60048036038101906101d79190611700565b610553565b6040516101e99190611b0b565b60405180910390f35b61020c600480360381019061020791906117f5565b610582565b005b61021661076c565b6040516102239190611d23565b60405180910390f35b610246600480360381019061024191906117cc565b610775565b005b610262600480360381019061025d919061174f565b610782565b60405161026f9190611b0b565b60405180910390f35b610292600480360381019061028d919061178b565b61082c565b60405161029f9190611d08565b60405180910390f35b6102c260048036038101906102bd919061169b565b61085a565b6040516102cf9190611d08565b60405180910390f35b6102e06108a2565b005b6102ea61092a565b6040516102f79190611af0565b60405180910390f35b610308610954565b6040516103159190611b26565b60405180910390f35b6103386004803603810190610333919061174f565b6109e6565b6040516103459190611b0b565b60405180910390f35b6103686004803603810190610363919061174f565b610ad0565b6040516103759190611b0b565b60405180910390f35b610386610af3565b6040516103939190611d08565b60405180910390f35b6103b660048036038101906103b191906116c4565b610b00565b6040516103c39190611d08565b60405180910390f35b6103e660048036038101906103e1919061169b565b610b87565b005b6060600380546103f790611edc565b80601f016020809104026020016040519081016040528092919081815260200182805461042390611edc565b80156104705780601f1061044557610100808354040283529160200191610470565b820191906000526020600020905b81548152906001019060200180831161045357829003601f168201915b5050505050905090565b600080610485610c7f565b9050610492818585610c87565b600191505092915050565b600681815481106104ad57600080fd5b9060005260206000200160009150905080546104c890611edc565b80601f01602080910402602001604051908101604052809291908181526020018280546104f490611edc565b80156105415780601f1061051657610100808354040283529160200191610541565b820191906000526020600020905b81548152906001019060200180831161052457829003601f168201915b505050505081565b6000600254905090565b60008061055e610c7f565b905061056b858285610e52565b610576858585610ede565b60019150509392505050565b61058a610c7f565b73ffffffffffffffffffffffffffffffffffffffff166105a861092a565b73ffffffffffffffffffffffffffffffffffffffff16146105fe576040517f08c379a00000000000000000000000000000000000000000000000000000000081526004016105f590611c28565b60405180910390fd5b60008211610641576040517f08c379a000000000000000000000000000000000000000000000000000000000815260040161063890611c88565b60405180910390fd5b60006007826040516106539190611ad9565b908152602001604051809103902054146106a2576040517f08c379a000000000000000000000000000000000000000000000000000000000815260040161069990611bc8565b60405180910390fd5b6006819080600181540180825580915050600190039060005260206000200160009091909190915090805190602001906106dd929190611566565b50816007826040516106ef9190611ad9565b90815260200160405180910390208190555061071261070c61092a565b8361115f565b8161071b61092a565b73ffffffffffffffffffffffffffffffffffffffff167f9d6f98ba0a2c5248f4bbbff224da521447ed7aac56884952a3f95b891e93f83a836040516107609190611b26565b60405180910390a35050565b60006012905090565b61077f33826112bf565b50565b60008061078d610c7f565b9050610821818585600160008673ffffffffffffffffffffffffffffffffffffffff1673ffffffffffffffffffffffffffffffffffffffff16815260200190815260200160002060008973ffffffffffffffffffffffffffffffffffffffff1673ffffffffffffffffffffffffffffffffffffffff1681526020019081526020016000205461081c9190611dbb565b610c87565b600191505092915050565b6007818051602081018201805184825260208301602085012081835280955050505050506000915090505481565b60008060008373ffffffffffffffffffffffffffffffffffffffff1673ffffffffffffffffffffffffffffffffffffffff168152602001908152602001600020549050919050565b6108aa610c7f565b73ffffffffffffffffffffffffffffffffffffffff166108c861092a565b73ffffffffffffffffffffffffffffffffffffffff161461091e576040517f08c379a000000000000000000000000000000000000000000000000000000000815260040161091590611c28565b60405180910390fd5b6109286000611496565b565b6000600560009054906101000a900473ffffffffffffffffffffffffffffffffffffffff16905090565b60606004805461096390611edc565b80601f016020809104026020016040519081016040528092919081815260200182805461098f90611edc565b80156109dc5780601f106109b1576101008083540402835291602001916109dc565b820191906000526020600020905b8154815290600101906020018083116109bf57829003601f168201915b5050505050905090565b6000806109f1610c7f565b90506000600160008373ffffffffffffffffffffffffffffffffffffffff1673ffffffffffffffffffffffffffffffffffffffff16815260200190815260200160002060008673ffffffffffffffffffffffffffffffffffffffff1673ffffffffffffffffffffffffffffffffffffffff16815260200190815260200160002054905083811015610ab7576040517f08c379a0000000000000000000000000000000000000000000000000000000008152600401610aae90611cc8565b60405180910390fd5b610ac48286868403610c87565b60019250505092915050565b600080610adb610c7f565b9050610ae8818585610ede565b600191505092915050565b6000600680549050905090565b6000600160008473ffffffffffffffffffffffffffffffffffffffff1673ffffffffffffffffffffffffffffffffffffffff16815260200190815260200160002060008373ffffffffffffffffffffffffffffffffffffffff1673ffffffffffffffffffffffffffffffffffffffff16815260200190815260200160002054905092915050565b610b8f610c7f565b73ffffffffffffffffffffffffffffffffffffffff16610bad61092a565b73ffffffffffffffffffffffffffffffffffffffff1614610c03576040517f08c379a0000000000000000000000000000000000000000000000000000000008152600401610bfa90611c28565b60405180910390fd5b600073ffffffffffffffffffffffffffffffffffffffff168173ffffffffffffffffffffffffffffffffffffffff161415610c73576040517f08c379a0000000000000000000000000000000000000000000000000000000008152600401610c6a90611b88565b60405180910390fd5b610c7c81611496565b50565b600033905090565b600073ffffffffffffffffffffffffffffffffffffffff168373ffffffffffffffffffffffffffffffffffffffff161415610cf7576040517f08c379a0000000000000000000000000000000000000000000000000000000008152600401610cee90611ca8565b60405180910390fd5b600073ffffffffffffffffffffffffffffffffffffffff168273ffffffffffffffffffffffffffffffffffffffff161415610d67576040517f08c379a0000000000000000000000000000000000000000000000000000000008152600401610d5e90611ba8565b60405180910390fd5b80600160008573ffffffffffffffffffffffffffffffffffffffff1673ffffffffffffffffffffffffffffffffffffffff16815260200190815260200160002060008473ffffffffffffffffffffffffffffffffffffffff1673ffffffffffffffffffffffffffffffffffffffff168152602001908152602001600020819055508173ffffffffffffffffffffffffffffffffffffffff168373ffffffffffffffffffffffffffffffffffffffff167f8c5be1e5ebec7d5bd14f71427d1e84f3dd0314c0f7b2291e5b200ac8c7c3b92583604051610e459190611d08565b60405180910390a3505050565b6000610e5e8484610b00565b90507fffffffffffffffffffffffffffffffffffffffffffffffffffffffffffffffff8114610ed85781811015610eca576040517f08c379a0000000000000000000000000000000000000000000000000000000008152600401610ec190611be8565b60405180910390fd5b610ed78484848403610c87565b5b50505050565b600073ffffffffffffffffffffffffffffffffffffffff168373ffffffffffffffffffffffffffffffffffffffff161415610f4e576040517f08c379a0000000000000000000000000000000000000000000000000000000008152600401610f4590611c68565b60405180910390fd5b600073ffffffffffffffffffffffffffffffffffffffff168273ffffffffffffffffffffffffffffffffffffffff161415610fbe576040517f08c379a0000000000000000000000000000000000000000000000000000000008152600401610fb590611b48565b60405180910390fd5b610fc983838361155c565b60008060008573ffffffffffffffffffffffffffffffffffffffff1673ffffffffffffffffffffffffffffffffffffffff1681526020019081526020016000205490508181101561104f576040517f08c379a000000000000000000000000000000000000000000000000000000000815260040161104690611c08565b60405180910390fd5b8181036000808673ffffffffffffffffffffffffffffffffffffffff1673ffffffffffffffffffffffffffffffffffffffff16815260200190815260200160002081905550816000808573ffffffffffffffffffffffffffffffffffffffff1673ffffffffffffffffffffffffffffffffffffffff16815260200190815260200160002060008282546110e29190611dbb565b925050819055508273ffffffffffffffffffffffffffffffffffffffff168473ffffffffffffffffffffffffffffffffffffffff167fddf252ad1be2c89b69c2b068fc378daa952ba7f163c4a11628f55a4df523b3ef846040516111469190611d08565b60405180910390a3611159848484611561565b50505050565b600073ffffffffffffffffffffffffffffffffffffffff168273ffffffffffffffffffffffffffffffffffffffff1614156111cf576040517f08c379a00000000000000000000000000000000000000000000000000000000081526004016111c690611ce8565b60405180910390fd5b6111db6000838361155c565b80600260008282546111ed9190611dbb565b92505081905550806000808473ffffffffffffffffffffffffffffffffffffffff1673ffffffffffffffffffffffffffffffffffffffff16815260200190815260200160002060008282546112429190611dbb565b925050819055508173ffffffffffffffffffffffffffffffffffffffff16600073ffffffffffffffffffffffffffffffffffffffff167fddf252ad1be2c89b69c2b068fc378daa952ba7f163c4a11628f55a4df523b3ef836040516112a79190611d08565b60405180910390a36112bb60008383611561565b5050565b600073ffffffffffffffffffffffffffffffffffffffff168273ffffffffffffffffffffffffffffffffffffffff16141561132f576040517f08c379a000000000000000000000000000000000000000000000000000000000815260040161132690611c48565b60405180910390fd5b61133b8260008361155c565b60008060008473ffffffffffffffffffffffffffffffffffffffff1673ffffffffffffffffffffffffffffffffffffffff168152602001908152602001600020549050818110156113c1576040517f08c379a00000000000000000000000000000000000000000000000000000000081526004016113b890611b68565b60405180910390fd5b8181036000808573ffffffffffffffffffffffffffffffffffffffff1673ffffffffffffffffffffffffffffffffffffffff1681526020019081526020016000208190555081600260008282546114189190611e11565b92505081905550600073ffffffffffffffffffffffffffffffffffffffff168373ffffffffffffffffffffffffffffffffffffffff167fddf252ad1be2c89b69c2b068fc378daa952ba7f163c4a11628f55a4df523b3ef8460405161147d9190611d08565b60405180910390a361149183600084611561565b505050565b6000600560009054906101000a900473ffffffffffffffffffffffffffffffffffffffff16905081600560006101000a81548173ffffffffffffffffffffffffffffffffffffffff021916908373ffffffffffffffffffffffffffffffffffffffff1602179055508173ffffffffffffffffffffffffffffffffffffffff168173ffffffffffffffffffffffffffffffffffffffff167f8be0079c531659141344cd1fd0a4f28419497f9722a3daafe3b4186f6b6457e060405160405180910390a35050565b505050565b505050565b82805461157290611edc565b90600052602060002090601f01602090048101928261159457600085556115db565b82601f106115ad57805160ff19168380011785556115db565b828001600101855582156115db579182015b828111156115da5782518255916020019190600101906115bf565b5b5090506115e891906115ec565b5090565b5b808211156116055760008160009055506001016115ed565b5090565b600061161c61161784611d63565b611d3e565b90508281526020810184848401111561163457600080fd5b61163f848285611e9a565b509392505050565b60008135905061165681612397565b92915050565b600082601f83011261166d57600080fd5b813561167d848260208601611609565b91505092915050565b600081359050611695816123ae565b92915050565b6000602082840312156116ad57600080fd5b60006116bb84828501611647565b91505092915050565b600080604083850312156116d757600080fd5b60006116e585828601611647565b92505060206116f685828601611647565b9150509250929050565b60008060006060848603121561171557600080fd5b600061172386828701611647565b935050602061173486828701611647565b925050604061174586828701611686565b9150509250925092565b6000806040838503121561176257600080fd5b600061177085828601611647565b925050602061178185828601611686565b9150509250929050565b60006020828403121561179d57600080fd5b600082013567ffffffffffffffff8111156117b757600080fd5b6117c38482850161165c565b91505092915050565b6000602082840312156117de57600080fd5b60006117ec84828501611686565b91505092915050565b6000806040838503121561180857600080fd5b600061181685828601611686565b925050602083013567ffffffffffffffff81111561183357600080fd5b61183f8582860161165c565b9150509250929050565b61185281611e45565b82525050565b61186181611e57565b82525050565b600061187282611d94565b61187c8185611d9f565b935061188c818560208601611ea9565b61189581611fcc565b840191505092915050565b60006118ab82611d94565b6118b58185611db0565b93506118c5818560208601611ea9565b80840191505092915050565b60006118de602383611d9f565b91506118e982611fdd565b604082019050919050565b6000611901602283611d9f565b915061190c8261202c565b604082019050919050565b6000611924602683611d9f565b915061192f8261207b565b604082019050919050565b6000611947602283611d9f565b9150611952826120ca565b604082019050919050565b600061196a601d83611d9f565b915061197582612119565b602082019050919050565b600061198d601d83611d9f565b915061199882612142565b602082019050919050565b60006119b0602683611d9f565b91506119bb8261216b565b604082019050919050565b60006119d3602083611d9f565b91506119de826121ba565b602082019050919050565b60006119f6602183611d9f565b9150611a01826121e3565b604082019050919050565b6000611a19602583611d9f565b9150611a2482612232565b604082019050919050565b6000611a3c602c83611d9f565b9150611a4782612281565b604082019050919050565b6000611a5f602483611d9f565b9150611a6a826122d0565b604082019050919050565b6000611a82602583611d9f565b9150611a8d8261231f565b604082019050919050565b6000611aa5601f83611d9f565b9150611ab08261236e565b602082019050919050565b611ac481611e83565b82525050565b611ad381611e8d565b82525050565b6000611ae582846118a0565b915081905092915050565b6000602082019050611b056000830184611849565b92915050565b6000602082019050611b206000830184611858565b92915050565b60006020820190508181036000830152611b408184611867565b905092915050565b60006020820190508181036000830152611b61816118d1565b9050919050565b60006020820190508181036000830152611b81816118f4565b9050919050565b60006020820190508181036000830152611ba181611917565b9050919050565b60006020820190508181036000830152611bc18161193a565b9050919050565b60006020820190508181036000830152611be18161195d565b9050919050565b60006020820190508181036000830152611c0181611980565b9050919050565b60006020820190508181036000830152611c21816119a3565b9050919050565b60006020820190508181036000830152611c41816119c6565b9050919050565b60006020820190508181036000830152611c61816119e9565b9050919050565b60006020820190508181036000830152611c8181611a0c565b9050919050565b60006020820190508181036000830152611ca181611a2f565b9050919050565b60006020820190508181036000830152611cc181611a52565b9050919050565b60006020820190508181036000830152611ce181611a75565b9050919050565b60006020820190508181036000830152611d0181611a98565b9050919050565b6000602082019050611d1d6000830184611abb565b92915050565b6000602082019050611d386000830184611aca565b92915050565b6000611d48611d59565b9050611d548282611f0e565b919050565b6000604051905090565b600067ffffffffffffffff821115611d7e57611d7d611f9d565b5b611d8782611fcc565b9050602081019050919050565b600081519050919050565b600082825260208201905092915050565b600081905092915050565b6000611dc682611e83565b9150611dd183611e83565b9250827fffffffffffffffffffffffffffffffffffffffffffffffffffffffffffffffff03821115611e0657611e05611f3f565b5b828201905092915050565b6000611e1c82611e83565b9150611e2783611e83565b925082821015611e3a57611e39611f3f565b5b828203905092915050565b6000611e5082611e63565b9050919050565b60008115159050919050565b600073ffffffffffffffffffffffffffffffffffffffff82169050919050565b6000819050919050565b600060ff82169050919050565b82818337600083830152505050565b60005b83811015611ec7578082015181840152602081019050611eac565b83811115611ed6576000848401525b50505050565b60006002820490506001821680611ef457607f821691505b60208210811415611f0857611f07611f6e565b5b50919050565b611f1782611fcc565b810181811067ffffffffffffffff82111715611f3657611f35611f9d565b5b80604052505050565b7f4e487b7100000000000000000000000000000000000000000000000000000000600052601160045260246000fd5b7f4e487b7100000000000000000000000000000000000000000000000000000000600052602260045260246000fd5b7f4e487b7100000000000000000000000000000000000000000000000000000000600052604160045260246000fd5b6000601f19601f8301169050919050565b7f45524332303a207472616e7366657220746f20746865207a65726f206164647260008201527f6573730000000000000000000000000000000000000000000000000000000000602082015250565b7f45524332303a206275726e20616d6f756e7420657863656564732062616c616e60008201527f6365000000000000000000000000000000000000000000000000000000000000602082015250565b7f4f776e61626c653a206e6577206f776e657220697320746865207a65726f206160008201527f6464726573730000000000000000000000000000000000000000000000000000602082015250565b7f45524332303a20617070726f766520746f20746865207a65726f20616464726560008201527f7373000000000000000000000000000000000000000000000000000000000000602082015250565b7f436572746966696361746520616c7265616479206465706f7369746564000000600082015250565b7f45524332303a20696e73756666696369656e7420616c6c6f77616e6365000000600082015250565b7f45524332303a207472616e7366657220616d6f756e742065786365656473206260008201527f616c616e63650000000000000000000000000000000000000000000000000000602082015250565b7f4f776e61626c653a2063616c6c6572206973206e6f7420746865206f776e6572600082015250565b7f45524332303a206275726e2066726f6d20746865207a65726f2061646472657360008201527f7300000000000000000000000000000000000000000000000000000000000000602082015250565b7f45524332303a207472616e736665722066726f6d20746865207a65726f20616460008201527f6472657373000000000000000000000000000000000000000000000000000000602082015250565b7f4365727469666963617465206d757374206861766520612076616c756520677260008201527f6561746572207468616e20300000000000000000000000000000000000000000602082015250565b7f45524332303a20617070726f76652066726f6d20746865207a65726f2061646460008201527f7265737300000000000000000000000000000000000000000000000000000000602082015250565b7f45524332303a2064656372656173656420616c6c6f77616e63652062656c6f7760008201527f207a65726f000000000000000000000000000000000000000000000000000000602082015250565b7f45524332303a206d696e7420746f20746865207a65726f206164647265737300600082015250565b6123a081611e45565b81146123ab57600080fd5b50565b6123b781611e83565b81146123c257600080fd5b5056fea26469706673582212205e68682b4d18b397465c0434f6a6dfedbd8cf18301920363e60bfd6c2405229c64736f6c63430008040033",
  "devdoc": {
    "kind": "dev",
    "methods": {
      "allowance(address,address)": {
        "details": "See {IERC20-allowance}."
      },
      "approve(address,uint256)": {
        "details": "See {IERC20-approve}. NOTE: If `amount` is the maximum `uint256`, the allowance is not updated on `transferFrom`. This is semantically equivalent to an infinite approval. Requirements: - `spender` cannot be the zero address."
      },
      "balanceOf(address)": {
        "details": "See {IERC20-balanceOf}."
      },
      "decimals()": {
        "details": "Returns the number of decimals used to get its user representation. For example, if `decimals` equals `2`, a balance of `505` tokens should be displayed to a user as `5.05` (`505 / 10 ** 2`). Tokens usually opt for a value of 18, imitating the relationship between Ether and Wei. This is the value {ERC20} uses, unless this function is overridden; NOTE: This information is only used for _display_ purposes: it in no way affects any of the arithmetic of the contract, including {IERC20-balanceOf} and {IERC20-transfer}."
      },
      "decreaseAllowance(address,uint256)": {
        "details": "Atomically decreases the allowance granted to `spender` by the caller. This is an alternative to {approve} that can be used as a mitigation for problems described in {IERC20-approve}. Emits an {Approval} event indicating the updated allowance. Requirements: - `spender` cannot be the zero address. - `spender` must have allowance for the caller of at least `subtractedValue`."
      },
      "increaseAllowance(address,uint256)": {
        "details": "Atomically increases the allowance granted to `spender` by the caller. This is an alternative to {approve} that can be used as a mitigation for problems described in {IERC20-approve}. Emits an {Approval} event indicating the updated allowance. Requirements: - `spender` cannot be the zero address."
      },
      "name()": {
        "details": "Returns the name of the token."
      },
      "owner()": {
        "details": "Returns the address of the current owner."
      },
      "renounceOwnership()": {
        "details": "Leaves the contract without owner. It will not be possible to call `onlyOwner` functions anymore. Can only be called by the current owner. NOTE: Renouncing ownership will leave the contract without an owner, thereby removing any functionality that is only available to the owner."
      },
      "symbol()": {
        "details": "Returns the symbol of the token, usually a shorter version of the name."
      },
      "totalSupply()": {
        "details": "See {IERC20-totalSupply}."
      },
      "transfer(address,uint256)": {
        "details": "See {IERC20-transfer}. Requirements: - `to` cannot be the zero address. - the caller must have a balance of at least `amount`."
      },
      "transferFrom(address,address,uint256)": {
        "details": "See {IERC20-transferFrom}. Emits an {Approval} event indicating the updated allowance. This is not required by the EIP. See the note at the beginning of {ERC20}. NOTE: Does not update the allowance if the current allowance is the maximum `uint256`. Requirements: - `from` and `to` cannot be the zero address. - `from` must have a balance of at least `amount`. - the caller must have allowance for ``from``'s tokens of at least `amount`."
      },
      "transferOwnership(address)": {
        "details": "Transfers ownership of the contract to a new account (`newOwner`). Can only be called by the current owner."
      }
    },
    "version": 1
  },
  "userdoc": {
    "kind": "user",
    "methods": {},
    "version": 1
  },
  "storageLayout": {
    "storage": [
      {
        "astId": 120,
        "contract": "contracts/CarbonCredit.sol:CarbonCredit",
        "label": "_balances",
        "offset": 0,
        "slot": "0",
        "type": "t_mapping(t_address,t_uint256)"
      },
      {
        "astId": 126,
        "contract": "contracts/CarbonCredit.sol:CarbonCredit",
        "label": "_allowances",
        "offset": 0,
        "slot": "1",
        "type": "t_mapping(t_address,t_mapping(t_address,t_uint256))"
      },
      {
        "astId": 128,
        "contract": "contracts/CarbonCredit.sol:CarbonCredit",
        "label": "_totalSupply",
        "offset": 0,
        "slot": "2",
        "type": "t_uint256"
      },
      {
        "astId": 130,
        "contract": "contracts/CarbonCredit.sol:CarbonCredit",
        "label": "_name",
        "offset": 0,
        "slot": "3",
        "type": "t_string_storage"
      },
      {
        "astId": 132,
        "contract": "contracts/CarbonCredit.sol:CarbonCredit",
        "label": "_symbol",
        "offset": 0,
        "slot": "4",
        "type": "t_string_storage"
      },
      {
        "astId": 7,
        "contract": "contracts/CarbonCredit.sol:CarbonCredit",
        "label": "_owner",
        "offset": 0,
        "slot": "5",
        "type": "t_address"
      },
      {
        "astId": 828,
        "contract": "contracts/CarbonCredit.sol:CarbonCredit",
        "label": "carbonCertificates",
        "offset": 0,
        "slot": "6",
        "type": "t_array(t_string_storage)dyn_storage"
      },
      {
        "astId": 832,
        "contract": "contracts/CarbonCredit.sol:CarbonCredit",
        "label": "carbonCertificateValue",
        "offset": 0,
        "slot": "7",
        "type": "t_mapping(t_string_memory_ptr,t_uint256)"
      }
    ],
    "types": {
      "t_address": {
        "encoding": "inplace",
        "label": "address",
        "numberOfBytes": "20"
      },
      "t_array(t_string_storage)dyn_storage": {
        "base": "t_string_storage",
        "encoding": "dynamic_array",
        "label": "string[]",
        "numberOfBytes": "32"
      },
      "t_mapping(t_address,t_mapping(t_address,t_uint256))": {
        "encoding": "mapping",
        "key": "t_address",
        "label": "mapping(address => mapping(address => uint256))",
        "numberOfBytes": "32",
        "value": "t_mapping(t_address,t_uint256)"
      },
      "t_mapping(t_address,t_uint256)": {
        "encoding": "mapping",
        "key": "t_address",
        "label": "mapping(address => uint256)",
        "numberOfBytes": "32",
        "value": "t_uint256"
      },
      "t_mapping(t_string_memory_ptr,t_uint256)": {
        "encoding": "mapping",
        "key": "t_string_memory_ptr",
        "label": "mapping(string => uint256)",
        "numberOfBytes": "32",
        "value": "t_uint256"
      },
      "t_string_memory_ptr": {
        "encoding": "bytes",
        "label": "string",
        "numberOfBytes": "32"
      },
      "t_string_storage": {
        "encoding": "bytes",
        "label": "string",
        "numberOfBytes": "32"
      },
      "t_uint256": {
        "encoding": "inplace",
        "label": "uint256",
        "numberOfBytes": "32"
      }
    }
  }
}